{
  "_format": "hh-sol-artifact-1",
  "contractName": "ModuleGuest",
  "sourceName": "contracts/modules/ModuleGuest.sol",
  "abi": [
    {
      "inputs": [
        {
          "internalType": "enum ModuleTransaction.CallType",
          "name": "",
          "type": "uint8"
        }
      ],
      "name": "InvalidCallType",
      "type": "error"
    },
    {
      "inputs": [
        {
          "internalType": "uint256",
          "name": "_requested",
          "type": "uint256"
        },
        {
          "internalType": "uint256",
          "name": "_available",
          "type": "uint256"
        }
      ],
      "name": "NotEnoughGas",
      "type": "error"
    },
    {
      "inputs": [
        {
          "internalType": "bytes32",
          "name": "_txHash",
          "type": "bytes32"
        },
        {
          "internalType": "bytes",
          "name": "_reason",
          "type": "bytes"
        }
      ],
      "name": "TxFailed",
      "type": "error"
    },
    {
      "anonymous": false,
      "inputs": [
        {
          "indexed": false,
          "internalType": "bytes32",
          "name": "_txHash",
          "type": "bytes32"
        }
      ],
      "name": "TxExecuted",
      "type": "event"
    },
    {
      "anonymous": false,
      "inputs": [
        {
          "indexed": false,
          "internalType": "bytes32",
          "name": "_txHash",
          "type": "bytes32"
        },
        {
          "indexed": false,
          "internalType": "bytes",
          "name": "_reason",
          "type": "bytes"
        }
      ],
      "name": "TxFailedEvent",
      "type": "event"
    },
    {
      "anonymous": false,
      "inputs": [
        {
          "indexed": false,
          "internalType": "bytes32",
          "name": "_txHash",
          "type": "bytes32"
        },
        {
          "indexed": false,
          "internalType": "bytes",
          "name": "_reason",
          "type": "bytes"
        }
      ],
      "name": "TxPayFeeFailed",
      "type": "event"
    },
    {
      "inputs": [
        {
          "components": [
            {
              "internalType": "enum ModuleTransaction.CallType",
              "name": "callType",
              "type": "uint8"
            },
            {
              "internalType": "bool",
              "name": "revertOnError",
              "type": "bool"
            },
            {
              "internalType": "address",
              "name": "target",
              "type": "address"
            },
            {
              "internalType": "uint256",
              "name": "gasLimit",
              "type": "uint256"
            },
            {
              "internalType": "uint256",
              "name": "value",
              "type": "uint256"
            },
            {
              "internalType": "bytes",
              "name": "data",
              "type": "bytes"
            }
          ],
          "internalType": "struct ModuleTransaction.Transaction[]",
          "name": "_txs",
          "type": "tuple[]"
        },
        {
          "internalType": "uint256",
          "name": "",
          "type": "uint256"
        },
        {
          "internalType": "bytes",
          "name": "",
          "type": "bytes"
        }
      ],
      "name": "execute",
      "outputs": [],
      "stateMutability": "payable",
      "type": "function"
    }
  ],
  "bytecode": "0x608060405234801561001057600080fd5b5061078f806100206000396000f3fe60806040526004361061001e5760003560e01c80632ca9e7d014610023575b600080fd5b610036610031366004610383565b610038565b005b600061006c86866040516020016100509291906104c7565b6040516020818303038152906040528051906020012046610081565b90506100798187876100da565b505050505050565b60405161190160f01b6020820152602281018290526bffffffffffffffffffffffff193060601b166042820152605681018390526000906076016040516020818303038152906040528051906020012090505b92915050565b60005b8181101561029757368383838181106100f8576100f86105f9565b905060200281019061010a919061060f565b90506060810135805a101561014257805a604051634fd394c160e11b8152600481019290925260248201526044015b60405180910390fd5b81606001355a10156101965760405162461bcd60e51b815260206004820152601860248201527f5f657865637574653a204e4f545f454e4f5547485f47415300000000000000006044820152606401610139565b6000806101a6602085018561062f565b60018111156101b7576101b761043f565b036101fb576101f46101cf6060850160408601610651565b608085013584156101e057846101e2565b5a5b6101ef60a088018861066c565b61029d565b9050610222565b610208602084018461062f565b604051631ea2549360e01b815260040161013991906106b3565b8015610260576040518781527f0639b0b186d373976f8bb98f9f7226ba8070f10cb6c7f9bd5086d3933f169a259060200160405180910390a1610281565b61028161027360408501602086016106c1565b8861027c6102ba565b6102d9565b505050808061028f906106dc565b9150506100dd565b50505050565b6000604051828482376000808483898b8af1979650505050505050565b60603d604051915060208201818101604052818352816000823e505090565b82156102fc5781816040516303dbd15960e41b8152600401610139929190610703565b7f656ebd35c1735779fb604597e2bb8781efd7dafbf3954d4c6befb48eec6f6e13828260405161032d929190610703565b60405180910390a1505050565b60008083601f84011261034c57600080fd5b50813567ffffffffffffffff81111561036457600080fd5b60208301915083602082850101111561037c57600080fd5b9250929050565b60008060008060006060868803121561039b57600080fd5b853567ffffffffffffffff808211156103b357600080fd5b818801915088601f8301126103c757600080fd5b8135818111156103d657600080fd5b8960208260051b85010111156103eb57600080fd5b6020928301975095509087013593506040870135908082111561040d57600080fd5b5061041a8882890161033a565b969995985093965092949392505050565b80356002811061043a57600080fd5b919050565b634e487b7160e01b600052602160045260246000fd5b6002811061047357634e487b7160e01b600052602160045260246000fd5b9052565b8035801515811461043a57600080fd5b80356001600160a01b038116811461043a57600080fd5b81835281816020850137506000828201602090810191909152601f909101601f19169091010190565b6000604080835260068184015260606533bab2b9ba1d60d11b818501526080808501602082818801528188835260a092508288019050828960051b8901018a60005b8b8110156105e8578a8303609f190184528135368e900360be1901811261052f57600080fd5b8d0160c0610545856105408461042b565b610455565b610550878301610477565b1515858801526001600160a01b03610569838d01610487565b168b860152898201358a860152888201358986015287820135601e1983360301811261059457600080fd5b90910186810191903567ffffffffffffffff8111156105b257600080fd5b8036038313156105c157600080fd5b81898701526105d3828701828561049e565b96880196955050509185019150600101610509565b50909b9a5050505050505050505050565b634e487b7160e01b600052603260045260246000fd5b6000823560be1983360301811261062557600080fd5b9190910192915050565b60006020828403121561064157600080fd5b61064a8261042b565b9392505050565b60006020828403121561066357600080fd5b61064a82610487565b6000808335601e1984360301811261068357600080fd5b83018035915067ffffffffffffffff82111561069e57600080fd5b60200191503681900382131561037c57600080fd5b602081016100d48284610455565b6000602082840312156106d357600080fd5b61064a82610477565b6000600182016106fc57634e487b7160e01b600052601160045260246000fd5b5060010190565b82815260006020604081840152835180604085015260005b818110156107375785810183015185820160600152820161071b565b506000606082860101526060601f19601f83011685010192505050939250505056fea26469706673582212208bd5af66096791484c00888b3bc6d49704f8dc63c3d44f6c8aa35f0ecd02febe64736f6c63430008100033",
  "linkReferences": {},
  "deployedLinkReferences": {}
}